{
  "_format": "hh-sol-artifact-1",
  "contractName": "StudentSocietyDAO",
  "sourceName": "contracts/StudentSocietyDAO.sol",
  "abi": [
    {
      "inputs": [],
      "stateMutability": "nonpayable",
      "type": "constructor"
    },
    {
      "anonymous": false,
      "inputs": [
        {
          "indexed": false,
          "internalType": "uint32",
          "name": "proposalIndex",
          "type": "uint32"
        }
      ],
      "name": "ProposalInitiated",
      "type": "event"
    },
    {
      "inputs": [
        {
          "internalType": "uint256",
          "name": "duration",
          "type": "uint256"
        },
        {
          "internalType": "string",
          "name": "name",
          "type": "string"
        },
        {
          "internalType": "string",
          "name": "data",
          "type": "string"
        }
      ],
      "name": "BeginProposal",
      "outputs": [],
      "stateMutability": "nonpayable",
      "type": "function"
    },
    {
      "inputs": [],
      "name": "CheckProposal",
      "outputs": [],
      "stateMutability": "view",
      "type": "function"
    },
    {
      "inputs": [],
      "name": "PROPOSAL_AMOUNT",
      "outputs": [
        {
          "internalType": "uint256",
          "name": "",
          "type": "uint256"
        }
      ],
      "stateMutability": "view",
      "type": "function"
    },
    {
      "inputs": [],
      "name": "VOTE_AMOUNT",
      "outputs": [
        {
          "internalType": "uint256",
          "name": "",
          "type": "uint256"
        }
      ],
      "stateMutability": "view",
      "type": "function"
    },
    {
      "inputs": [
        {
          "internalType": "uint256",
          "name": "index",
          "type": "uint256"
        }
      ],
      "name": "VoteProposal",
      "outputs": [],
      "stateMutability": "nonpayable",
      "type": "function"
    },
    {
      "inputs": [],
      "name": "getproposalNumber",
      "outputs": [
        {
          "internalType": "uint256",
          "name": "",
          "type": "uint256"
        }
      ],
      "stateMutability": "view",
      "type": "function"
    },
    {
      "inputs": [],
      "name": "helloworld",
      "outputs": [
        {
          "internalType": "string",
          "name": "",
          "type": "string"
        }
      ],
      "stateMutability": "pure",
      "type": "function"
    }
  ],
  "bytecode": "0x60806040523480156200001157600080fd5b5060405162000020906200008f565b6200002b906200014e565b604051809103906000f08015801562000048573d6000803e3d6000fd5b50600160006101000a81548173ffffffffffffffffffffffffffffffffffffffff021916908373ffffffffffffffffffffffffffffffffffffffff16021790555062000185565b61198f80620013e383390190565b600082825260208201905092915050565b7f5a4a55546f6b656e000000000000000000000000000000000000000000000000600082015250565b6000620000e66008836200009d565b9150620000f382620000ae565b602082019050919050565b7f5a4a55546f6b656e53796d626f6c000000000000000000000000000000000000600082015250565b600062000136600e836200009d565b91506200014382620000fe565b602082019050919050565b600060408201905081810360008301526200016981620000d7565b905081810360208301526200017e8162000127565b9050919050565b61124e80620001956000396000f3fe608060405234801561001057600080fd5b506004361061007d5760003560e01c806381cc0a381161005b57806381cc0a38146100da57806393cb1c32146100f6578063ca8ef89f14610100578063df7a6c761461011e5761007d565b80632d1d9af9146100825780632f2f4859146100a0578063366d9cbc146100be575b600080fd5b61008a61013c565b6040516100979190610bf0565b60405180910390f35b6100a8610149565b6040516100b59190610ca4565b60405180910390f35b6100d860048036038101906100d39190610e3b565b610186565b005b6100f460048036038101906100ef9190610ec6565b610448565b005b6100fe6107bb565b005b610108610a80565b6040516101159190610bf0565b60405180910390f35b610126610a85565b6040516101339190610bf0565b60405180910390f35b6000600280549050905090565b60606040518060400160405280600b81526020017f68656c6c6f20776f726c64000000000000000000000000000000000000000000815250905090565b600160009054906101000a900473ffffffffffffffffffffffffffffffffffffffff1673ffffffffffffffffffffffffffffffffffffffff166323b872dd3330600a6040518463ffffffff1660e01b81526004016101e693929190610f34565b602060405180830381600087803b15801561020057600080fd5b505af1158015610214573d6000803e3d6000fd5b505050506040513d601f19601f820116820180604052508101906102389190610fa3565b50610241610a8a565b6001600280549050610253919061100f565b816000019063ffffffff16908163ffffffff168152505033816020019073ffffffffffffffffffffffffffffffffffffffff16908173ffffffffffffffffffffffffffffffffffffffff16815250504281604001818152505083816060018181525050828160800181905250818160a0018190525060008160c001818152505060008160e0018181525050600081610100019015159081151581525050600081610120019015159081151581525050600281908060018154018082558091505060019003906000526020600020906008020160009091909190915060008201518160000160006101000a81548163ffffffff021916908363ffffffff16021790555060208201518160000160046101000a81548173ffffffffffffffffffffffffffffffffffffffff021916908373ffffffffffffffffffffffffffffffffffffffff160217905550604082015181600101556060820151816002015560808201518160030190805190602001906103cc929190610afd565b5060a08201518160040190805190602001906103e9929190610afd565b5060c0820151816005015560e082015181600601556101008201518160070160006101000a81548160ff0219169083151502179055506101208201518160070160016101000a81548160ff021916908315150217905550505050505050565b80600160028054905061045b9190611049565b1015801561049f5750600015156002828154811061047c5761047b61107d565b5b906000526020600020906008020160070160009054906101000a900460ff161515145b6104de576040517f08c379a00000000000000000000000000000000000000000000000000000000081526004016104d5906110f8565b60405180910390fd5b60005b6000805490508110156106c9573373ffffffffffffffffffffffffffffffffffffffff16600082815481106105195761051861107d565b5b906000526020600020906003020160000160009054906101000a900473ffffffffffffffffffffffffffffffffffffffff1673ffffffffffffffffffffffffffffffffffffffff161480156105925750816000828154811061057e5761057d61107d565b5b906000526020600020906003020160020154145b156105d757600081815481106105ab576105aa61107d565b5b906000526020600020906003020160010160008154809291906105cd90611118565b91905055506106c9565b6105df610b83565b82816040018181525050600181602001818152505033816000019073ffffffffffffffffffffffffffffffffffffffff16908173ffffffffffffffffffffffffffffffffffffffff1681525050600081908060018154018082558091505060019003906000526020600020906003020160009091909190915060008201518160000160006101000a81548173ffffffffffffffffffffffffffffffffffffffff021916908373ffffffffffffffffffffffffffffffffffffffff160217905550602082015181600101556040820151816002015550505080806106c190611118565b9150506104e1565b50600281815481106106de576106dd61107d565b5b9060005260206000209060080201600501600081548092919061070090611118565b9190505550600160009054906101000a900473ffffffffffffffffffffffffffffffffffffffff1673ffffffffffffffffffffffffffffffffffffffff166323b872dd3330600a6040518463ffffffff1660e01b815260040161076593929190610f34565b602060405180830381600087803b15801561077f57600080fd5b505af1158015610793573d6000803e3d6000fd5b505050506040513d601f19601f820116820180604052508101906107b79190610fa3565b5050565b6107c3610a8a565b60005b600280549050811015610a7c57600281815481106107e7576107e661107d565b5b9060005260206000209060080201604051806101400160405290816000820160009054906101000a900463ffffffff1663ffffffff1663ffffffff1681526020016000820160049054906101000a900473ffffffffffffffffffffffffffffffffffffffff1673ffffffffffffffffffffffffffffffffffffffff1673ffffffffffffffffffffffffffffffffffffffff16815260200160018201548152602001600282015481526020016003820180546108a190611190565b80601f01602080910402602001604051908101604052809291908181526020018280546108cd90611190565b801561091a5780601f106108ef5761010080835404028352916020019161091a565b820191906000526020600020905b8154815290600101906020018083116108fd57829003601f168201915b5050505050815260200160048201805461093390611190565b80601f016020809104026020016040519081016040528092919081815260200182805461095f90611190565b80156109ac5780601f10610981576101008083540402835291602001916109ac565b820191906000526020600020905b81548152906001019060200180831161098f57829003601f168201915b5050505050815260200160058201548152602001600682015481526020016007820160009054906101000a900460ff161515151581526020016007820160019054906101000a900460ff16151515158152505091504282606001518360400151610a1691906111c2565b1015610a69576001826101000190151590811515815250508160e001518260c001511115610a5557600182610120019015159081151581525050610a68565b6000826101200190151590811515815250505b5b8080610a7490611118565b9150506107c6565b5050565b600a81565b600a81565b604051806101400160405280600063ffffffff168152602001600073ffffffffffffffffffffffffffffffffffffffff1681526020016000815260200160008152602001606081526020016060815260200160008152602001600081526020016000151581526020016000151581525090565b828054610b0990611190565b90600052602060002090601f016020900481019282610b2b5760008555610b72565b82601f10610b4457805160ff1916838001178555610b72565b82800160010185558215610b72579182015b82811115610b71578251825591602001919060010190610b56565b5b509050610b7f9190610bba565b5090565b6040518060600160405280600073ffffffffffffffffffffffffffffffffffffffff16815260200160008152602001600081525090565b5b80821115610bd3576000816000905550600101610bbb565b5090565b6000819050919050565b610bea81610bd7565b82525050565b6000602082019050610c056000830184610be1565b92915050565b600081519050919050565b600082825260208201905092915050565b60005b83811015610c45578082015181840152602081019050610c2a565b83811115610c54576000848401525b50505050565b6000601f19601f8301169050919050565b6000610c7682610c0b565b610c808185610c16565b9350610c90818560208601610c27565b610c9981610c5a565b840191505092915050565b60006020820190508181036000830152610cbe8184610c6b565b905092915050565b6000604051905090565b600080fd5b600080fd5b610ce381610bd7565b8114610cee57600080fd5b50565b600081359050610d0081610cda565b92915050565b600080fd5b600080fd5b7f4e487b7100000000000000000000000000000000000000000000000000000000600052604160045260246000fd5b610d4882610c5a565b810181811067ffffffffffffffff82111715610d6757610d66610d10565b5b80604052505050565b6000610d7a610cc6565b9050610d868282610d3f565b919050565b600067ffffffffffffffff821115610da657610da5610d10565b5b610daf82610c5a565b9050602081019050919050565b82818337600083830152505050565b6000610dde610dd984610d8b565b610d70565b905082815260208101848484011115610dfa57610df9610d0b565b5b610e05848285610dbc565b509392505050565b600082601f830112610e2257610e21610d06565b5b8135610e32848260208601610dcb565b91505092915050565b600080600060608486031215610e5457610e53610cd0565b5b6000610e6286828701610cf1565b935050602084013567ffffffffffffffff811115610e8357610e82610cd5565b5b610e8f86828701610e0d565b925050604084013567ffffffffffffffff811115610eb057610eaf610cd5565b5b610ebc86828701610e0d565b9150509250925092565b600060208284031215610edc57610edb610cd0565b5b6000610eea84828501610cf1565b91505092915050565b600073ffffffffffffffffffffffffffffffffffffffff82169050919050565b6000610f1e82610ef3565b9050919050565b610f2e81610f13565b82525050565b6000606082019050610f496000830186610f25565b610f566020830185610f25565b610f636040830184610be1565b949350505050565b60008115159050919050565b610f8081610f6b565b8114610f8b57600080fd5b50565b600081519050610f9d81610f77565b92915050565b600060208284031215610fb957610fb8610cd0565b5b6000610fc784828501610f8e565b91505092915050565b600063ffffffff82169050919050565b7f4e487b7100000000000000000000000000000000000000000000000000000000600052601160045260246000fd5b600061101a82610fd0565b915061102583610fd0565b92508263ffffffff0382111561103e5761103d610fe0565b5b828201905092915050565b600061105482610bd7565b915061105f83610bd7565b92508282101561107257611071610fe0565b5b828203905092915050565b7f4e487b7100000000000000000000000000000000000000000000000000000000600052603260045260246000fd5b7f4e6f2070726f706f73616c732100000000000000000000000000000000000000600082015250565b60006110e2600d83610c16565b91506110ed826110ac565b602082019050919050565b60006020820190508181036000830152611111816110d5565b9050919050565b600061112382610bd7565b91507fffffffffffffffffffffffffffffffffffffffffffffffffffffffffffffffff82141561115657611155610fe0565b5b600182019050919050565b7f4e487b7100000000000000000000000000000000000000000000000000000000600052602260045260246000fd5b600060028204905060018216806111a857607f821691505b602082108114156111bc576111bb611161565b5b50919050565b60006111cd82610bd7565b91506111d883610bd7565b9250827fffffffffffffffffffffffffffffffffffffffffffffffffffffffffffffffff0382111561120d5761120c610fe0565b5b82820190509291505056fea264697066735822122071208438ab15091d64b9c738391f547b977ed8d6056e60a97e6261e64ad4553764736f6c6343000809003360806040523480156200001157600080fd5b506040516200198f3803806200198f8339818101604052810190620000379190620002c2565b818181600390805190602001906200005192919062000075565b5080600490805190602001906200006a92919062000075565b5050505050620003ac565b828054620000839062000376565b90600052602060002090601f016020900481019282620000a75760008555620000f3565b82601f10620000c257805160ff1916838001178555620000f3565b82800160010185558215620000f3579182015b82811115620000f2578251825591602001919060010190620000d5565b5b50905062000102919062000106565b5090565b5b808211156200012157600081600090555060010162000107565b5090565b6000604051905090565b600080fd5b600080fd5b600080fd5b600080fd5b6000601f19601f8301169050919050565b7f4e487b7100000000000000000000000000000000000000000000000000000000600052604160045260246000fd5b6200018e8262000143565b810181811067ffffffffffffffff82111715620001b057620001af62000154565b5b80604052505050565b6000620001c562000125565b9050620001d3828262000183565b919050565b600067ffffffffffffffff821115620001f657620001f562000154565b5b620002018262000143565b9050602081019050919050565b60005b838110156200022e57808201518184015260208101905062000211565b838111156200023e576000848401525b50505050565b60006200025b6200025584620001d8565b620001b9565b9050828152602081018484840111156200027a57620002796200013e565b5b620002878482856200020e565b509392505050565b600082601f830112620002a757620002a662000139565b5b8151620002b984826020860162000244565b91505092915050565b60008060408385031215620002dc57620002db6200012f565b5b600083015167ffffffffffffffff811115620002fd57620002fc62000134565b5b6200030b858286016200028f565b925050602083015167ffffffffffffffff8111156200032f576200032e62000134565b5b6200033d858286016200028f565b9150509250929050565b7f4e487b7100000000000000000000000000000000000000000000000000000000600052602260045260246000fd5b600060028204905060018216806200038f57607f821691505b60208210811415620003a657620003a562000347565b5b50919050565b6115d380620003bc6000396000f3fe608060405234801561001057600080fd5b50600436106100b45760003560e01c80633950935111610071578063395093511461017d57806370a08231146101ad57806395d89b41146101dd578063a457c2d7146101fb578063a9059cbb1461022b578063dd62ed3e1461025b576100b4565b806306fdde03146100b9578063095ea7b3146100d757806318160ddd1461010757806323b872dd14610125578063313ce567146101555780633884d63514610173575b600080fd5b6100c161028b565b6040516100ce9190610d8f565b60405180910390f35b6100f160048036038101906100ec9190610e4a565b61031d565b6040516100fe9190610ea5565b60405180910390f35b61010f610340565b60405161011c9190610ecf565b60405180910390f35b61013f600480360381019061013a9190610eea565b61034a565b60405161014c9190610ea5565b60405180910390f35b61015d610379565b60405161016a9190610f59565b60405180910390f35b61017b610382565b005b61019760048036038101906101929190610e4a565b61047a565b6040516101a49190610ea5565b60405180910390f35b6101c760048036038101906101c29190610f74565b6104b1565b6040516101d49190610ecf565b60405180910390f35b6101e56104f9565b6040516101f29190610d8f565b60405180910390f35b61021560048036038101906102109190610e4a565b61058b565b6040516102229190610ea5565b60405180910390f35b61024560048036038101906102409190610e4a565b610602565b6040516102529190610ea5565b60405180910390f35b61027560048036038101906102709190610fa1565b610625565b6040516102829190610ecf565b60405180910390f35b60606003805461029a90611010565b80601f01602080910402602001604051908101604052809291908181526020018280546102c690611010565b80156103135780601f106102e857610100808354040283529160200191610313565b820191906000526020600020905b8154815290600101906020018083116102f657829003601f168201915b5050505050905090565b6000806103286106ac565b90506103358185856106b4565b600191505092915050565b6000600254905090565b6000806103556106ac565b905061036285828561087f565b61036d85858561090b565b60019150509392505050565b60006012905090565b60001515600560003373ffffffffffffffffffffffffffffffffffffffff1673ffffffffffffffffffffffffffffffffffffffff16815260200190815260200160002060009054906101000a900460ff16151514610415576040517f08c379a000000000000000000000000000000000000000000000000000000000815260040161040c906110b4565b60405180910390fd5b610420336064610b8c565b6001600560003373ffffffffffffffffffffffffffffffffffffffff1673ffffffffffffffffffffffffffffffffffffffff16815260200190815260200160002060006101000a81548160ff021916908315150217905550565b6000806104856106ac565b90506104a68185856104978589610625565b6104a19190611103565b6106b4565b600191505092915050565b60008060008373ffffffffffffffffffffffffffffffffffffffff1673ffffffffffffffffffffffffffffffffffffffff168152602001908152602001600020549050919050565b60606004805461050890611010565b80601f016020809104026020016040519081016040528092919081815260200182805461053490611010565b80156105815780601f1061055657610100808354040283529160200191610581565b820191906000526020600020905b81548152906001019060200180831161056457829003601f168201915b5050505050905090565b6000806105966106ac565b905060006105a48286610625565b9050838110156105e9576040517f08c379a00000000000000000000000000000000000000000000000000000000081526004016105e0906111cb565b60405180910390fd5b6105f682868684036106b4565b60019250505092915050565b60008061060d6106ac565b905061061a81858561090b565b600191505092915050565b6000600160008473ffffffffffffffffffffffffffffffffffffffff1673ffffffffffffffffffffffffffffffffffffffff16815260200190815260200160002060008373ffffffffffffffffffffffffffffffffffffffff1673ffffffffffffffffffffffffffffffffffffffff16815260200190815260200160002054905092915050565b600033905090565b600073ffffffffffffffffffffffffffffffffffffffff168373ffffffffffffffffffffffffffffffffffffffff161415610724576040517f08c379a000000000000000000000000000000000000000000000000000000000815260040161071b9061125d565b60405180910390fd5b600073ffffffffffffffffffffffffffffffffffffffff168273ffffffffffffffffffffffffffffffffffffffff161415610794576040517f08c379a000000000000000000000000000000000000000000000000000000000815260040161078b906112ef565b60405180910390fd5b80600160008573ffffffffffffffffffffffffffffffffffffffff1673ffffffffffffffffffffffffffffffffffffffff16815260200190815260200160002060008473ffffffffffffffffffffffffffffffffffffffff1673ffffffffffffffffffffffffffffffffffffffff168152602001908152602001600020819055508173ffffffffffffffffffffffffffffffffffffffff168373ffffffffffffffffffffffffffffffffffffffff167f8c5be1e5ebec7d5bd14f71427d1e84f3dd0314c0f7b2291e5b200ac8c7c3b925836040516108729190610ecf565b60405180910390a3505050565b600061088b8484610625565b90507fffffffffffffffffffffffffffffffffffffffffffffffffffffffffffffffff811461090557818110156108f7576040517f08c379a00000000000000000000000000000000000000000000000000000000081526004016108ee9061135b565b60405180910390fd5b61090484848484036106b4565b5b50505050565b600073ffffffffffffffffffffffffffffffffffffffff168373ffffffffffffffffffffffffffffffffffffffff16141561097b576040517f08c379a0000000000000000000000000000000000000000000000000000000008152600401610972906113ed565b60405180910390fd5b600073ffffffffffffffffffffffffffffffffffffffff168273ffffffffffffffffffffffffffffffffffffffff1614156109eb576040517f08c379a00000000000000000000000000000000000000000000000000000000081526004016109e29061147f565b60405180910390fd5b6109f6838383610cec565b60008060008573ffffffffffffffffffffffffffffffffffffffff1673ffffffffffffffffffffffffffffffffffffffff16815260200190815260200160002054905081811015610a7c576040517f08c379a0000000000000000000000000000000000000000000000000000000008152600401610a7390611511565b60405180910390fd5b8181036000808673ffffffffffffffffffffffffffffffffffffffff1673ffffffffffffffffffffffffffffffffffffffff16815260200190815260200160002081905550816000808573ffffffffffffffffffffffffffffffffffffffff1673ffffffffffffffffffffffffffffffffffffffff1681526020019081526020016000206000828254610b0f9190611103565b925050819055508273ffffffffffffffffffffffffffffffffffffffff168473ffffffffffffffffffffffffffffffffffffffff167fddf252ad1be2c89b69c2b068fc378daa952ba7f163c4a11628f55a4df523b3ef84604051610b739190610ecf565b60405180910390a3610b86848484610cf1565b50505050565b600073ffffffffffffffffffffffffffffffffffffffff168273ffffffffffffffffffffffffffffffffffffffff161415610bfc576040517f08c379a0000000000000000000000000000000000000000000000000000000008152600401610bf39061157d565b60405180910390fd5b610c0860008383610cec565b8060026000828254610c1a9190611103565b92505081905550806000808473ffffffffffffffffffffffffffffffffffffffff1673ffffffffffffffffffffffffffffffffffffffff1681526020019081526020016000206000828254610c6f9190611103565b925050819055508173ffffffffffffffffffffffffffffffffffffffff16600073ffffffffffffffffffffffffffffffffffffffff167fddf252ad1be2c89b69c2b068fc378daa952ba7f163c4a11628f55a4df523b3ef83604051610cd49190610ecf565b60405180910390a3610ce860008383610cf1565b5050565b505050565b505050565b600081519050919050565b600082825260208201905092915050565b60005b83811015610d30578082015181840152602081019050610d15565b83811115610d3f576000848401525b50505050565b6000601f19601f8301169050919050565b6000610d6182610cf6565b610d6b8185610d01565b9350610d7b818560208601610d12565b610d8481610d45565b840191505092915050565b60006020820190508181036000830152610da98184610d56565b905092915050565b600080fd5b600073ffffffffffffffffffffffffffffffffffffffff82169050919050565b6000610de182610db6565b9050919050565b610df181610dd6565b8114610dfc57600080fd5b50565b600081359050610e0e81610de8565b92915050565b6000819050919050565b610e2781610e14565b8114610e3257600080fd5b50565b600081359050610e4481610e1e565b92915050565b60008060408385031215610e6157610e60610db1565b5b6000610e6f85828601610dff565b9250506020610e8085828601610e35565b9150509250929050565b60008115159050919050565b610e9f81610e8a565b82525050565b6000602082019050610eba6000830184610e96565b92915050565b610ec981610e14565b82525050565b6000602082019050610ee46000830184610ec0565b92915050565b600080600060608486031215610f0357610f02610db1565b5b6000610f1186828701610dff565b9350506020610f2286828701610dff565b9250506040610f3386828701610e35565b9150509250925092565b600060ff82169050919050565b610f5381610f3d565b82525050565b6000602082019050610f6e6000830184610f4a565b92915050565b600060208284031215610f8a57610f89610db1565b5b6000610f9884828501610dff565b91505092915050565b60008060408385031215610fb857610fb7610db1565b5b6000610fc685828601610dff565b9250506020610fd785828601610dff565b9150509250929050565b7f4e487b7100000000000000000000000000000000000000000000000000000000600052602260045260246000fd5b6000600282049050600182168061102857607f821691505b6020821081141561103c5761103b610fe1565b5b50919050565b7f5468697320757365722068617320636c61696d65642061697264726f7020616c60008201527f7265616479000000000000000000000000000000000000000000000000000000602082015250565b600061109e602583610d01565b91506110a982611042565b604082019050919050565b600060208201905081810360008301526110cd81611091565b9050919050565b7f4e487b7100000000000000000000000000000000000000000000000000000000600052601160045260246000fd5b600061110e82610e14565b915061111983610e14565b9250827fffffffffffffffffffffffffffffffffffffffffffffffffffffffffffffffff0382111561114e5761114d6110d4565b5b828201905092915050565b7f45524332303a2064656372656173656420616c6c6f77616e63652062656c6f7760008201527f207a65726f000000000000000000000000000000000000000000000000000000602082015250565b60006111b5602583610d01565b91506111c082611159565b604082019050919050565b600060208201905081810360008301526111e4816111a8565b9050919050565b7f45524332303a20617070726f76652066726f6d20746865207a65726f2061646460008201527f7265737300000000000000000000000000000000000000000000000000000000602082015250565b6000611247602483610d01565b9150611252826111eb565b604082019050919050565b600060208201905081810360008301526112768161123a565b9050919050565b7f45524332303a20617070726f766520746f20746865207a65726f20616464726560008201527f7373000000000000000000000000000000000000000000000000000000000000602082015250565b60006112d9602283610d01565b91506112e48261127d565b604082019050919050565b60006020820190508181036000830152611308816112cc565b9050919050565b7f45524332303a20696e73756666696369656e7420616c6c6f77616e6365000000600082015250565b6000611345601d83610d01565b91506113508261130f565b602082019050919050565b6000602082019050818103600083015261137481611338565b9050919050565b7f45524332303a207472616e736665722066726f6d20746865207a65726f20616460008201527f6472657373000000000000000000000000000000000000000000000000000000602082015250565b60006113d7602583610d01565b91506113e28261137b565b604082019050919050565b60006020820190508181036000830152611406816113ca565b9050919050565b7f45524332303a207472616e7366657220746f20746865207a65726f206164647260008201527f6573730000000000000000000000000000000000000000000000000000000000602082015250565b6000611469602383610d01565b91506114748261140d565b604082019050919050565b600060208201905081810360008301526114988161145c565b9050919050565b7f45524332303a207472616e7366657220616d6f756e742065786365656473206260008201527f616c616e63650000000000000000000000000000000000000000000000000000602082015250565b60006114fb602683610d01565b91506115068261149f565b604082019050919050565b6000602082019050818103600083015261152a816114ee565b9050919050565b7f45524332303a206d696e7420746f20746865207a65726f206164647265737300600082015250565b6000611567601f83610d01565b915061157282611531565b602082019050919050565b600060208201905081810360008301526115968161155a565b905091905056fea2646970667358221220a527b9ca011353ad941c0af3f961805b8a5d2c8d4be8895c40559f184c43827564736f6c63430008090033",
  "linkReferences": {},
  "deployedLinkReferences": {}
}