{
  "_format": "hh-sol-artifact-1",
  "contractName": "StudentSocietyDAO",
  "sourceName": "contracts/StudentSocietyDAO.sol",
  "abi": [
    {
      "inputs": [],
      "stateMutability": "nonpayable",
      "type": "constructor"
    },
    {
      "anonymous": false,
      "inputs": [
        {
          "indexed": false,
          "internalType": "uint32",
          "name": "proposalIndex",
          "type": "uint32"
        }
      ],
      "name": "ProposalInitiated",
      "type": "event"
    },
    {
      "inputs": [
        {
          "internalType": "uint256",
          "name": "duration",
          "type": "uint256"
        },
        {
          "internalType": "string",
          "name": "name",
          "type": "string"
        },
        {
          "internalType": "string",
          "name": "data",
          "type": "string"
        }
      ],
      "name": "BeginProposal",
      "outputs": [],
      "stateMutability": "nonpayable",
      "type": "function"
    },
    {
      "inputs": [],
      "name": "CheckProposal",
      "outputs": [],
      "stateMutability": "nonpayable",
      "type": "function"
    },
    {
      "inputs": [],
      "name": "PROPOSAL_AMOUNT",
      "outputs": [
        {
          "internalType": "uint256",
          "name": "",
          "type": "uint256"
        }
      ],
      "stateMutability": "view",
      "type": "function"
    },
    {
      "inputs": [],
      "name": "VOTE_AMOUNT",
      "outputs": [
        {
          "internalType": "uint256",
          "name": "",
          "type": "uint256"
        }
      ],
      "stateMutability": "view",
      "type": "function"
    },
    {
      "inputs": [
        {
          "internalType": "uint256",
          "name": "index",
          "type": "uint256"
        },
        {
          "internalType": "uint256",
          "name": "choice",
          "type": "uint256"
        }
      ],
      "name": "VoteProposal",
      "outputs": [],
      "stateMutability": "nonpayable",
      "type": "function"
    },
    {
      "inputs": [],
      "name": "getProposals",
      "outputs": [
        {
          "components": [
            {
              "internalType": "uint32",
              "name": "index",
              "type": "uint32"
            },
            {
              "internalType": "address",
              "name": "proposer",
              "type": "address"
            },
            {
              "internalType": "uint256",
              "name": "startTime",
              "type": "uint256"
            },
            {
              "internalType": "uint256",
              "name": "duration",
              "type": "uint256"
            },
            {
              "internalType": "string",
              "name": "name",
              "type": "string"
            },
            {
              "internalType": "string",
              "name": "data",
              "type": "string"
            },
            {
              "internalType": "uint256",
              "name": "agree",
              "type": "uint256"
            },
            {
              "internalType": "uint256",
              "name": "disagree",
              "type": "uint256"
            },
            {
              "internalType": "bool",
              "name": "end",
              "type": "bool"
            },
            {
              "internalType": "bool",
              "name": "success",
              "type": "bool"
            }
          ],
          "internalType": "struct StudentSocietyDAO.Proposal[]",
          "name": "",
          "type": "tuple[]"
        }
      ],
      "stateMutability": "view",
      "type": "function"
    },
    {
      "inputs": [],
      "name": "getProposer",
      "outputs": [
        {
          "components": [
            {
              "internalType": "address",
              "name": "proposer",
              "type": "address"
            },
            {
              "internalType": "uint256",
              "name": "count",
              "type": "uint256"
            }
          ],
          "internalType": "struct StudentSocietyDAO.Proposer[]",
          "name": "",
          "type": "tuple[]"
        }
      ],
      "stateMutability": "view",
      "type": "function"
    },
    {
      "inputs": [],
      "name": "getVotes",
      "outputs": [
        {
          "components": [
            {
              "internalType": "address",
              "name": "voter",
              "type": "address"
            },
            {
              "internalType": "uint256",
              "name": "count",
              "type": "uint256"
            },
            {
              "internalType": "uint256",
              "name": "index",
              "type": "uint256"
            }
          ],
          "internalType": "struct StudentSocietyDAO.Vote[]",
          "name": "",
          "type": "tuple[]"
        }
      ],
      "stateMutability": "view",
      "type": "function"
    },
    {
      "inputs": [
        {
          "internalType": "address",
          "name": "input",
          "type": "address"
        }
      ],
      "name": "getcountnumber",
      "outputs": [
        {
          "internalType": "uint256",
          "name": "",
          "type": "uint256"
        }
      ],
      "stateMutability": "view",
      "type": "function"
    },
    {
      "inputs": [],
      "name": "getproposalNumber",
      "outputs": [
        {
          "internalType": "uint256",
          "name": "",
          "type": "uint256"
        }
      ],
      "stateMutability": "view",
      "type": "function"
    },
    {
      "inputs": [],
      "name": "getvoteNumber",
      "outputs": [
        {
          "internalType": "uint256",
          "name": "",
          "type": "uint256"
        }
      ],
      "stateMutability": "view",
      "type": "function"
    },
    {
      "inputs": [],
      "name": "helloworld",
      "outputs": [
        {
          "internalType": "string",
          "name": "",
          "type": "string"
        }
      ],
      "stateMutability": "pure",
      "type": "function"
    },
    {
      "inputs": [],
      "name": "studentERC20",
      "outputs": [
        {
          "internalType": "contract StudentERC20",
          "name": "",
          "type": "address"
        }
      ],
      "stateMutability": "view",
      "type": "function"
    }
  ],
  "bytecode": "0x60806040523480156200001157600080fd5b506040516200002090620002fe565b6200002b90620004e0565b604051809103906000f08015801562000048573d6000803e3d6000fd5b50600260006101000a81548173ffffffffffffffffffffffffffffffffffffffff021916908373ffffffffffffffffffffffffffffffffffffffff160217905550620000936200030c565b600380549050816000019063ffffffff16908163ffffffff168152505033816020019073ffffffffffffffffffffffffffffffffffffffff16908173ffffffffffffffffffffffffffffffffffffffff168152505042816040018181525050600a8160600181815250506040518060400160405280600481526020017f746573740000000000000000000000000000000000000000000000000000000081525081608001819052506040518060400160405280600481526020017f64617461000000000000000000000000000000000000000000000000000000008152508160a0018190525060008160c001818152505060008160e0018181525050600081610100019015159081151581525050600081610120019015159081151581525050600381908060018154018082558091505060019003906000526020600020906008020160009091909190915060008201518160000160006101000a81548163ffffffff021916908363ffffffff16021790555060208201518160000160046101000a81548173ffffffffffffffffffffffffffffffffffffffff021916908373ffffffffffffffffffffffffffffffffffffffff160217905550604082015181600101556060820151816002015560808201518160030190805190602001906200027f9291906200037f565b5060a08201518160040190805190602001906200029e9291906200037f565b5060c0820151816005015560e082015181600601556101008201518160070160006101000a81548160ff0219169083151502179055506101208201518160070160016101000a81548160ff0219169083151502179055505050506200057c565b61198f80620025b183390190565b604051806101400160405280600063ffffffff168152602001600073ffffffffffffffffffffffffffffffffffffffff1681526020016000815260200160008152602001606081526020016060815260200160008152602001600081526020016000151581526020016000151581525090565b8280546200038d9062000546565b90600052602060002090601f016020900481019282620003b15760008555620003fd565b82601f10620003cc57805160ff1916838001178555620003fd565b82800160010185558215620003fd579182015b82811115620003fc578251825591602001919060010190620003df565b5b5090506200040c919062000410565b5090565b5b808211156200042b57600081600090555060010162000411565b5090565b600082825260208201905092915050565b7f5a4a55546f6b656e000000000000000000000000000000000000000000000000600082015250565b6000620004786008836200042f565b9150620004858262000440565b602082019050919050565b7f5a4a55546f6b656e53796d626f6c000000000000000000000000000000000000600082015250565b6000620004c8600e836200042f565b9150620004d58262000490565b602082019050919050565b60006040820190508181036000830152620004fb8162000469565b905081810360208301526200051081620004b9565b9050919050565b7f4e487b7100000000000000000000000000000000000000000000000000000000600052602260045260246000fd5b600060028204905060018216806200055f57607f821691505b6020821081141562000576576200057562000517565b5b50919050565b612025806200058c6000396000f3fe608060405234801561001057600080fd5b50600436106100cf5760003560e01c806362564c481161008c578063aa80313511610066578063aa803135146101ca578063ca8ef89f146101fa578063df7a6c7614610218578063e9790d0214610236576100cf565b806362564c48146101845780636c3fbb2d146101a257806393cb1c32146101c0576100cf565b80630dc96015146100d45780632ac4a2a8146100f25780632d1d9af9146101105780632f2f48591461012e578063366d9cbc1461014c5780634ed46a5914610168575b600080fd5b6100dc610254565b6040516100e991906115b7565b60405180910390f35b6100fa61031d565b60405161010791906115e8565b60405180910390f35b610118610329565b60405161012591906115e8565b60405180910390f35b610136610336565b604051610143919061169c565b60405180910390f35b61016660048036038101906101619190611833565b610373565b005b610182600480360381019061017d91906118be565b6107a4565b005b61018c610bcf565b6040516101999190611b25565b60405180910390f35b6101aa610e2d565b6040516101b79190611ba6565b60405180910390f35b6101c8610e53565b005b6101e460048036038101906101df9190611bed565b61114d565b6040516101f191906115e8565b60405180910390f35b610202611226565b60405161020f91906115e8565b60405180910390f35b61022061122b565b60405161022d91906115e8565b60405180910390f35b61023e611230565b60405161024b9190611cf8565b60405180910390f35b60606000805480602002602001604051908101604052809291908181526020016000905b8282101561031457838290600052602060002090600302016040518060600160405290816000820160009054906101000a900473ffffffffffffffffffffffffffffffffffffffff1673ffffffffffffffffffffffffffffffffffffffff1673ffffffffffffffffffffffffffffffffffffffff1681526020016001820154815260200160028201548152505081526020019060010190610278565b50505050905090565b60008080549050905090565b6000600380549050905090565b60606040518060400160405280600b81526020017f68656c6c6f20776f726c64000000000000000000000000000000000000000000815250905090565b600260009054906101000a900473ffffffffffffffffffffffffffffffffffffffff1673ffffffffffffffffffffffffffffffffffffffff166323b872dd3330600a6040518463ffffffff1660e01b81526004016103d393929190611d29565b602060405180830381600087803b1580156103ed57600080fd5b505af1158015610401573d6000803e3d6000fd5b505050506040513d601f19601f820116820180604052508101906104259190611d8c565b5061042e6112ef565b600380549050816000019063ffffffff16908163ffffffff168152505033816020019073ffffffffffffffffffffffffffffffffffffffff16908173ffffffffffffffffffffffffffffffffffffffff16815250504281604001818152505083816060018181525050828160800181905250818160a0018190525060008160c001818152505060008160e0018181525050600081610100019015159081151581525050600081610120019015159081151581525050600381908060018154018082558091505060019003906000526020600020906008020160009091909190915060008201518160000160006101000a81548163ffffffff021916908363ffffffff16021790555060208201518160000160046101000a81548173ffffffffffffffffffffffffffffffffffffffff021916908373ffffffffffffffffffffffffffffffffffffffff160217905550604082015181600101556060820151816002015560808201518160030190805190602001906105ad929190611362565b5060a08201518160040190805190602001906105ca929190611362565b5060c0820151816005015560e082015181600601556101008201518160070160006101000a81548160ff0219169083151502179055506101208201518160070160016101000a81548160ff021916908315150217905550505060005b6001805490508110156106c4573373ffffffffffffffffffffffffffffffffffffffff166001828154811061065e5761065d611db9565b5b906000526020600020906002020160000160009054906101000a900473ffffffffffffffffffffffffffffffffffffffff1673ffffffffffffffffffffffffffffffffffffffff1614156106b1576106c4565b80806106bc90611e17565b915050610626565b60018054905081141561079d576106d96113e8565b33816000019073ffffffffffffffffffffffffffffffffffffffff16908173ffffffffffffffffffffffffffffffffffffffff16815250506000816020018181525050600181908060018154018082558091505060019003906000526020600020906002020160009091909190915060008201518160000160006101000a81548173ffffffffffffffffffffffffffffffffffffffff021916908373ffffffffffffffffffffffffffffffffffffffff160217905550602082015181600101555050505b5050505050565b6000826003805490501180156107f0575060001515600384815481106107cd576107cc611db9565b5b906000526020600020906008020160070160009054906101000a900460ff161515145b61082f576040517f08c379a000000000000000000000000000000000000000000000000000000000815260040161082690611eac565b60405180910390fd5b600090505b6000805490508110156109a5573373ffffffffffffffffffffffffffffffffffffffff166000828154811061086c5761086b611db9565b5b906000526020600020906003020160000160009054906101000a900473ffffffffffffffffffffffffffffffffffffffff1673ffffffffffffffffffffffffffffffffffffffff161480156108e5575082600082815481106108d1576108d0611db9565b5b906000526020600020906003020160020154145b1561099257600360008281548110610900576108ff611db9565b5b90600052602060002090600302016001015410610952576040517f08c379a000000000000000000000000000000000000000000000000000000000815260040161094990611f18565b60405180910390fd5b6000818154811061096657610965611db9565b5b9060005260206000209060030201600101600081548092919061098890611e17565b91905055506109a5565b808061099d90611e17565b915050610834565b600080549050811415610a92576109ba611418565b83816040018181525050600181602001818152505033816000019073ffffffffffffffffffffffffffffffffffffffff16908173ffffffffffffffffffffffffffffffffffffffff1681525050600081908060018154018082558091505060019003906000526020600020906003020160009091909190915060008201518160000160006101000a81548173ffffffffffffffffffffffffffffffffffffffff021916908373ffffffffffffffffffffffffffffffffffffffff16021790555060208201518160010155604082015181600201555050505b6000821415610adb5760038381548110610aaf57610aae611db9565b5b90600052602060002090600802016005016000815480929190610ad190611e17565b9190505550610b17565b60038381548110610aef57610aee611db9565b5b90600052602060002090600802016006016000815480929190610b1190611e17565b91905055505b600260009054906101000a900473ffffffffffffffffffffffffffffffffffffffff1673ffffffffffffffffffffffffffffffffffffffff166323b872dd3330600a6040518463ffffffff1660e01b8152600401610b7793929190611d29565b602060405180830381600087803b158015610b9157600080fd5b505af1158015610ba5573d6000803e3d6000fd5b505050506040513d601f19601f82011682018060405250810190610bc99190611d8c565b50505050565b60606003805480602002602001604051908101604052809291908181526020016000905b82821015610e245783829060005260206000209060080201604051806101400160405290816000820160009054906101000a900463ffffffff1663ffffffff1663ffffffff1681526020016000820160049054906101000a900473ffffffffffffffffffffffffffffffffffffffff1673ffffffffffffffffffffffffffffffffffffffff1673ffffffffffffffffffffffffffffffffffffffff1681526020016001820154815260200160028201548152602001600382018054610cb790611f67565b80601f0160208091040260200160405190810160405280929190818152602001828054610ce390611f67565b8015610d305780601f10610d0557610100808354040283529160200191610d30565b820191906000526020600020905b815481529060010190602001808311610d1357829003601f168201915b50505050508152602001600482018054610d4990611f67565b80601f0160208091040260200160405190810160405280929190818152602001828054610d7590611f67565b8015610dc25780601f10610d9757610100808354040283529160200191610dc2565b820191906000526020600020905b815481529060010190602001808311610da557829003601f168201915b5050505050815260200160058201548152602001600682015481526020016007820160009054906101000a900460ff161515151581526020016007820160019054906101000a900460ff16151515158152505081526020019060010190610bf3565b50505050905090565b600260009054906101000a900473ffffffffffffffffffffffffffffffffffffffff1681565b60005b60038054905081101561114a574260038281548110610e7857610e77611db9565b5b90600052602060002090600802016002015460038381548110610e9e57610e9d611db9565b5b906000526020600020906008020160010154610eba9190611f99565b108015610efd57506000151560038281548110610eda57610ed9611db9565b5b906000526020600020906008020160070160009054906101000a900460ff161515145b1561113757600160038281548110610f1857610f17611db9565b5b906000526020600020906008020160070160006101000a81548160ff02191690831515021790555060038181548110610f5457610f53611db9565b5b90600052602060002090600802016006015460038281548110610f7a57610f79611db9565b5b90600052602060002090600802016005015411156110f757600160038281548110610fa857610fa7611db9565b5b906000526020600020906008020160070160016101000a81548160ff02191690831515021790555060005b6001805490508110156110f15760038281548110610ff457610ff3611db9565b5b906000526020600020906008020160000160049054906101000a900473ffffffffffffffffffffffffffffffffffffffff1673ffffffffffffffffffffffffffffffffffffffff16600182815481106110505761104f611db9565b5b906000526020600020906002020160000160009054906101000a900473ffffffffffffffffffffffffffffffffffffffff1673ffffffffffffffffffffffffffffffffffffffff1614156110de57600181815481106110b2576110b1611db9565b5b906000526020600020906002020160010160008154809291906110d490611e17565b91905055506110f1565b80806110e990611e17565b915050610fd3565b50611136565b60006003828154811061110d5761110c611db9565b5b906000526020600020906008020160070160016101000a81548160ff0219169083151502179055505b5b808061114290611e17565b915050610e56565b50565b60008060008091505b60018054905082101561121c578373ffffffffffffffffffffffffffffffffffffffff166001838154811061118e5761118d611db9565b5b906000526020600020906002020160000160009054906101000a900473ffffffffffffffffffffffffffffffffffffffff1673ffffffffffffffffffffffffffffffffffffffff16141561120957600182815481106111f0576111ef611db9565b5b906000526020600020906002020160010154905061121c565b818061121490611e17565b925050611156565b8092505050919050565b600a81565b600a81565b60606001805480602002602001604051908101604052809291908181526020016000905b828210156112e657838290600052602060002090600202016040518060400160405290816000820160009054906101000a900473ffffffffffffffffffffffffffffffffffffffff1673ffffffffffffffffffffffffffffffffffffffff1673ffffffffffffffffffffffffffffffffffffffff16815260200160018201548152505081526020019060010190611254565b50505050905090565b604051806101400160405280600063ffffffff168152602001600073ffffffffffffffffffffffffffffffffffffffff1681526020016000815260200160008152602001606081526020016060815260200160008152602001600081526020016000151581526020016000151581525090565b82805461136e90611f67565b90600052602060002090601f01602090048101928261139057600085556113d7565b82601f106113a957805160ff19168380011785556113d7565b828001600101855582156113d7579182015b828111156113d65782518255916020019190600101906113bb565b5b5090506113e4919061144f565b5090565b6040518060400160405280600073ffffffffffffffffffffffffffffffffffffffff168152602001600081525090565b6040518060600160405280600073ffffffffffffffffffffffffffffffffffffffff16815260200160008152602001600081525090565b5b80821115611468576000816000905550600101611450565b5090565b600081519050919050565b600082825260208201905092915050565b6000819050602082019050919050565b600073ffffffffffffffffffffffffffffffffffffffff82169050919050565b60006114c382611498565b9050919050565b6114d3816114b8565b82525050565b6000819050919050565b6114ec816114d9565b82525050565b60608201600082015161150860008501826114ca565b50602082015161151b60208501826114e3565b50604082015161152e60408501826114e3565b50505050565b600061154083836114f2565b60608301905092915050565b6000602082019050919050565b60006115648261146c565b61156e8185611477565b935061157983611488565b8060005b838110156115aa5781516115918882611534565b975061159c8361154c565b92505060018101905061157d565b5085935050505092915050565b600060208201905081810360008301526115d18184611559565b905092915050565b6115e2816114d9565b82525050565b60006020820190506115fd60008301846115d9565b92915050565b600081519050919050565b600082825260208201905092915050565b60005b8381101561163d578082015181840152602081019050611622565b8381111561164c576000848401525b50505050565b6000601f19601f8301169050919050565b600061166e82611603565b611678818561160e565b935061168881856020860161161f565b61169181611652565b840191505092915050565b600060208201905081810360008301526116b68184611663565b905092915050565b6000604051905090565b600080fd5b600080fd5b6116db816114d9565b81146116e657600080fd5b50565b6000813590506116f8816116d2565b92915050565b600080fd5b600080fd5b7f4e487b7100000000000000000000000000000000000000000000000000000000600052604160045260246000fd5b61174082611652565b810181811067ffffffffffffffff8211171561175f5761175e611708565b5b80604052505050565b60006117726116be565b905061177e8282611737565b919050565b600067ffffffffffffffff82111561179e5761179d611708565b5b6117a782611652565b9050602081019050919050565b82818337600083830152505050565b60006117d66117d184611783565b611768565b9050828152602081018484840111156117f2576117f1611703565b5b6117fd8482856117b4565b509392505050565b600082601f83011261181a576118196116fe565b5b813561182a8482602086016117c3565b91505092915050565b60008060006060848603121561184c5761184b6116c8565b5b600061185a868287016116e9565b935050602084013567ffffffffffffffff81111561187b5761187a6116cd565b5b61188786828701611805565b925050604084013567ffffffffffffffff8111156118a8576118a76116cd565b5b6118b486828701611805565b9150509250925092565b600080604083850312156118d5576118d46116c8565b5b60006118e3858286016116e9565b92505060206118f4858286016116e9565b9150509250929050565b600081519050919050565b600082825260208201905092915050565b6000819050602082019050919050565b600063ffffffff82169050919050565b6119438161192a565b82525050565b600082825260208201905092915050565b600061196582611603565b61196f8185611949565b935061197f81856020860161161f565b61198881611652565b840191505092915050565b60008115159050919050565b6119a881611993565b82525050565b6000610140830160008301516119c7600086018261193a565b5060208301516119da60208601826114ca565b5060408301516119ed60408601826114e3565b506060830151611a0060608601826114e3565b5060808301518482036080860152611a18828261195a565b91505060a083015184820360a0860152611a32828261195a565b91505060c0830151611a4760c08601826114e3565b5060e0830151611a5a60e08601826114e3565b50610100830151611a6f61010086018261199f565b50610120830151611a8461012086018261199f565b508091505092915050565b6000611a9b83836119ae565b905092915050565b6000602082019050919050565b6000611abb826118fe565b611ac58185611909565b935083602082028501611ad78561191a565b8060005b85811015611b135784840389528151611af48582611a8f565b9450611aff83611aa3565b925060208a01995050600181019050611adb565b50829750879550505050505092915050565b60006020820190508181036000830152611b3f8184611ab0565b905092915050565b6000819050919050565b6000611b6c611b67611b6284611498565b611b47565b611498565b9050919050565b6000611b7e82611b51565b9050919050565b6000611b9082611b73565b9050919050565b611ba081611b85565b82525050565b6000602082019050611bbb6000830184611b97565b92915050565b611bca816114b8565b8114611bd557600080fd5b50565b600081359050611be781611bc1565b92915050565b600060208284031215611c0357611c026116c8565b5b6000611c1184828501611bd8565b91505092915050565b600081519050919050565b600082825260208201905092915050565b6000819050602082019050919050565b604082016000820151611c5c60008501826114ca565b506020820151611c6f60208501826114e3565b50505050565b6000611c818383611c46565b60408301905092915050565b6000602082019050919050565b6000611ca582611c1a565b611caf8185611c25565b9350611cba83611c36565b8060005b83811015611ceb578151611cd28882611c75565b9750611cdd83611c8d565b925050600181019050611cbe565b5085935050505092915050565b60006020820190508181036000830152611d128184611c9a565b905092915050565b611d23816114b8565b82525050565b6000606082019050611d3e6000830186611d1a565b611d4b6020830185611d1a565b611d5860408301846115d9565b949350505050565b611d6981611993565b8114611d7457600080fd5b50565b600081519050611d8681611d60565b92915050565b600060208284031215611da257611da16116c8565b5b6000611db084828501611d77565b91505092915050565b7f4e487b7100000000000000000000000000000000000000000000000000000000600052603260045260246000fd5b7f4e487b7100000000000000000000000000000000000000000000000000000000600052601160045260246000fd5b6000611e22826114d9565b91507fffffffffffffffffffffffffffffffffffffffffffffffffffffffffffffffff821415611e5557611e54611de8565b5b600182019050919050565b7f4e6f2070726f706f73616c732100000000000000000000000000000000000000600082015250565b6000611e96600d8361160e565b9150611ea182611e60565b602082019050919050565b60006020820190508181036000830152611ec581611e89565b9050919050565b7f766f746520746f6f206d616e792074696d657321000000000000000000000000600082015250565b6000611f0260148361160e565b9150611f0d82611ecc565b602082019050919050565b60006020820190508181036000830152611f3181611ef5565b9050919050565b7f4e487b7100000000000000000000000000000000000000000000000000000000600052602260045260246000fd5b60006002820490506001821680611f7f57607f821691505b60208210811415611f9357611f92611f38565b5b50919050565b6000611fa4826114d9565b9150611faf836114d9565b9250827fffffffffffffffffffffffffffffffffffffffffffffffffffffffffffffffff03821115611fe457611fe3611de8565b5b82820190509291505056fea26469706673582212207329047a95d0b5a705fd35e349838bcc66241284bdf45e58d2b55083fbde419e64736f6c6343000809003360806040523480156200001157600080fd5b506040516200198f3803806200198f8339818101604052810190620000379190620002c2565b818181600390805190602001906200005192919062000075565b5080600490805190602001906200006a92919062000075565b5050505050620003ac565b828054620000839062000376565b90600052602060002090601f016020900481019282620000a75760008555620000f3565b82601f10620000c257805160ff1916838001178555620000f3565b82800160010185558215620000f3579182015b82811115620000f2578251825591602001919060010190620000d5565b5b50905062000102919062000106565b5090565b5b808211156200012157600081600090555060010162000107565b5090565b6000604051905090565b600080fd5b600080fd5b600080fd5b600080fd5b6000601f19601f8301169050919050565b7f4e487b7100000000000000000000000000000000000000000000000000000000600052604160045260246000fd5b6200018e8262000143565b810181811067ffffffffffffffff82111715620001b057620001af62000154565b5b80604052505050565b6000620001c562000125565b9050620001d3828262000183565b919050565b600067ffffffffffffffff821115620001f657620001f562000154565b5b620002018262000143565b9050602081019050919050565b60005b838110156200022e57808201518184015260208101905062000211565b838111156200023e576000848401525b50505050565b60006200025b6200025584620001d8565b620001b9565b9050828152602081018484840111156200027a57620002796200013e565b5b620002878482856200020e565b509392505050565b600082601f830112620002a757620002a662000139565b5b8151620002b984826020860162000244565b91505092915050565b60008060408385031215620002dc57620002db6200012f565b5b600083015167ffffffffffffffff811115620002fd57620002fc62000134565b5b6200030b858286016200028f565b925050602083015167ffffffffffffffff8111156200032f576200032e62000134565b5b6200033d858286016200028f565b9150509250929050565b7f4e487b7100000000000000000000000000000000000000000000000000000000600052602260045260246000fd5b600060028204905060018216806200038f57607f821691505b60208210811415620003a657620003a562000347565b5b50919050565b6115d380620003bc6000396000f3fe608060405234801561001057600080fd5b50600436106100b45760003560e01c80633950935111610071578063395093511461017d57806370a08231146101ad57806395d89b41146101dd578063a457c2d7146101fb578063a9059cbb1461022b578063dd62ed3e1461025b576100b4565b806306fdde03146100b9578063095ea7b3146100d757806318160ddd1461010757806323b872dd14610125578063313ce567146101555780633884d63514610173575b600080fd5b6100c161028b565b6040516100ce9190610d8f565b60405180910390f35b6100f160048036038101906100ec9190610e4a565b61031d565b6040516100fe9190610ea5565b60405180910390f35b61010f610340565b60405161011c9190610ecf565b60405180910390f35b61013f600480360381019061013a9190610eea565b61034a565b60405161014c9190610ea5565b60405180910390f35b61015d610379565b60405161016a9190610f59565b60405180910390f35b61017b610382565b005b61019760048036038101906101929190610e4a565b61047a565b6040516101a49190610ea5565b60405180910390f35b6101c760048036038101906101c29190610f74565b6104b1565b6040516101d49190610ecf565b60405180910390f35b6101e56104f9565b6040516101f29190610d8f565b60405180910390f35b61021560048036038101906102109190610e4a565b61058b565b6040516102229190610ea5565b60405180910390f35b61024560048036038101906102409190610e4a565b610602565b6040516102529190610ea5565b60405180910390f35b61027560048036038101906102709190610fa1565b610625565b6040516102829190610ecf565b60405180910390f35b60606003805461029a90611010565b80601f01602080910402602001604051908101604052809291908181526020018280546102c690611010565b80156103135780601f106102e857610100808354040283529160200191610313565b820191906000526020600020905b8154815290600101906020018083116102f657829003601f168201915b5050505050905090565b6000806103286106ac565b90506103358185856106b4565b600191505092915050565b6000600254905090565b6000806103556106ac565b905061036285828561087f565b61036d85858561090b565b60019150509392505050565b60006012905090565b60001515600560003373ffffffffffffffffffffffffffffffffffffffff1673ffffffffffffffffffffffffffffffffffffffff16815260200190815260200160002060009054906101000a900460ff16151514610415576040517f08c379a000000000000000000000000000000000000000000000000000000000815260040161040c906110b4565b60405180910390fd5b610420336064610b8c565b6001600560003373ffffffffffffffffffffffffffffffffffffffff1673ffffffffffffffffffffffffffffffffffffffff16815260200190815260200160002060006101000a81548160ff021916908315150217905550565b6000806104856106ac565b90506104a68185856104978589610625565b6104a19190611103565b6106b4565b600191505092915050565b60008060008373ffffffffffffffffffffffffffffffffffffffff1673ffffffffffffffffffffffffffffffffffffffff168152602001908152602001600020549050919050565b60606004805461050890611010565b80601f016020809104026020016040519081016040528092919081815260200182805461053490611010565b80156105815780601f1061055657610100808354040283529160200191610581565b820191906000526020600020905b81548152906001019060200180831161056457829003601f168201915b5050505050905090565b6000806105966106ac565b905060006105a48286610625565b9050838110156105e9576040517f08c379a00000000000000000000000000000000000000000000000000000000081526004016105e0906111cb565b60405180910390fd5b6105f682868684036106b4565b60019250505092915050565b60008061060d6106ac565b905061061a81858561090b565b600191505092915050565b6000600160008473ffffffffffffffffffffffffffffffffffffffff1673ffffffffffffffffffffffffffffffffffffffff16815260200190815260200160002060008373ffffffffffffffffffffffffffffffffffffffff1673ffffffffffffffffffffffffffffffffffffffff16815260200190815260200160002054905092915050565b600033905090565b600073ffffffffffffffffffffffffffffffffffffffff168373ffffffffffffffffffffffffffffffffffffffff161415610724576040517f08c379a000000000000000000000000000000000000000000000000000000000815260040161071b9061125d565b60405180910390fd5b600073ffffffffffffffffffffffffffffffffffffffff168273ffffffffffffffffffffffffffffffffffffffff161415610794576040517f08c379a000000000000000000000000000000000000000000000000000000000815260040161078b906112ef565b60405180910390fd5b80600160008573ffffffffffffffffffffffffffffffffffffffff1673ffffffffffffffffffffffffffffffffffffffff16815260200190815260200160002060008473ffffffffffffffffffffffffffffffffffffffff1673ffffffffffffffffffffffffffffffffffffffff168152602001908152602001600020819055508173ffffffffffffffffffffffffffffffffffffffff168373ffffffffffffffffffffffffffffffffffffffff167f8c5be1e5ebec7d5bd14f71427d1e84f3dd0314c0f7b2291e5b200ac8c7c3b925836040516108729190610ecf565b60405180910390a3505050565b600061088b8484610625565b90507fffffffffffffffffffffffffffffffffffffffffffffffffffffffffffffffff811461090557818110156108f7576040517f08c379a00000000000000000000000000000000000000000000000000000000081526004016108ee9061135b565b60405180910390fd5b61090484848484036106b4565b5b50505050565b600073ffffffffffffffffffffffffffffffffffffffff168373ffffffffffffffffffffffffffffffffffffffff16141561097b576040517f08c379a0000000000000000000000000000000000000000000000000000000008152600401610972906113ed565b60405180910390fd5b600073ffffffffffffffffffffffffffffffffffffffff168273ffffffffffffffffffffffffffffffffffffffff1614156109eb576040517f08c379a00000000000000000000000000000000000000000000000000000000081526004016109e29061147f565b60405180910390fd5b6109f6838383610cec565b60008060008573ffffffffffffffffffffffffffffffffffffffff1673ffffffffffffffffffffffffffffffffffffffff16815260200190815260200160002054905081811015610a7c576040517f08c379a0000000000000000000000000000000000000000000000000000000008152600401610a7390611511565b60405180910390fd5b8181036000808673ffffffffffffffffffffffffffffffffffffffff1673ffffffffffffffffffffffffffffffffffffffff16815260200190815260200160002081905550816000808573ffffffffffffffffffffffffffffffffffffffff1673ffffffffffffffffffffffffffffffffffffffff1681526020019081526020016000206000828254610b0f9190611103565b925050819055508273ffffffffffffffffffffffffffffffffffffffff168473ffffffffffffffffffffffffffffffffffffffff167fddf252ad1be2c89b69c2b068fc378daa952ba7f163c4a11628f55a4df523b3ef84604051610b739190610ecf565b60405180910390a3610b86848484610cf1565b50505050565b600073ffffffffffffffffffffffffffffffffffffffff168273ffffffffffffffffffffffffffffffffffffffff161415610bfc576040517f08c379a0000000000000000000000000000000000000000000000000000000008152600401610bf39061157d565b60405180910390fd5b610c0860008383610cec565b8060026000828254610c1a9190611103565b92505081905550806000808473ffffffffffffffffffffffffffffffffffffffff1673ffffffffffffffffffffffffffffffffffffffff1681526020019081526020016000206000828254610c6f9190611103565b925050819055508173ffffffffffffffffffffffffffffffffffffffff16600073ffffffffffffffffffffffffffffffffffffffff167fddf252ad1be2c89b69c2b068fc378daa952ba7f163c4a11628f55a4df523b3ef83604051610cd49190610ecf565b60405180910390a3610ce860008383610cf1565b5050565b505050565b505050565b600081519050919050565b600082825260208201905092915050565b60005b83811015610d30578082015181840152602081019050610d15565b83811115610d3f576000848401525b50505050565b6000601f19601f8301169050919050565b6000610d6182610cf6565b610d6b8185610d01565b9350610d7b818560208601610d12565b610d8481610d45565b840191505092915050565b60006020820190508181036000830152610da98184610d56565b905092915050565b600080fd5b600073ffffffffffffffffffffffffffffffffffffffff82169050919050565b6000610de182610db6565b9050919050565b610df181610dd6565b8114610dfc57600080fd5b50565b600081359050610e0e81610de8565b92915050565b6000819050919050565b610e2781610e14565b8114610e3257600080fd5b50565b600081359050610e4481610e1e565b92915050565b60008060408385031215610e6157610e60610db1565b5b6000610e6f85828601610dff565b9250506020610e8085828601610e35565b9150509250929050565b60008115159050919050565b610e9f81610e8a565b82525050565b6000602082019050610eba6000830184610e96565b92915050565b610ec981610e14565b82525050565b6000602082019050610ee46000830184610ec0565b92915050565b600080600060608486031215610f0357610f02610db1565b5b6000610f1186828701610dff565b9350506020610f2286828701610dff565b9250506040610f3386828701610e35565b9150509250925092565b600060ff82169050919050565b610f5381610f3d565b82525050565b6000602082019050610f6e6000830184610f4a565b92915050565b600060208284031215610f8a57610f89610db1565b5b6000610f9884828501610dff565b91505092915050565b60008060408385031215610fb857610fb7610db1565b5b6000610fc685828601610dff565b9250506020610fd785828601610dff565b9150509250929050565b7f4e487b7100000000000000000000000000000000000000000000000000000000600052602260045260246000fd5b6000600282049050600182168061102857607f821691505b6020821081141561103c5761103b610fe1565b5b50919050565b7f5468697320757365722068617320636c61696d65642061697264726f7020616c60008201527f7265616479000000000000000000000000000000000000000000000000000000602082015250565b600061109e602583610d01565b91506110a982611042565b604082019050919050565b600060208201905081810360008301526110cd81611091565b9050919050565b7f4e487b7100000000000000000000000000000000000000000000000000000000600052601160045260246000fd5b600061110e82610e14565b915061111983610e14565b9250827fffffffffffffffffffffffffffffffffffffffffffffffffffffffffffffffff0382111561114e5761114d6110d4565b5b828201905092915050565b7f45524332303a2064656372656173656420616c6c6f77616e63652062656c6f7760008201527f207a65726f000000000000000000000000000000000000000000000000000000602082015250565b60006111b5602583610d01565b91506111c082611159565b604082019050919050565b600060208201905081810360008301526111e4816111a8565b9050919050565b7f45524332303a20617070726f76652066726f6d20746865207a65726f2061646460008201527f7265737300000000000000000000000000000000000000000000000000000000602082015250565b6000611247602483610d01565b9150611252826111eb565b604082019050919050565b600060208201905081810360008301526112768161123a565b9050919050565b7f45524332303a20617070726f766520746f20746865207a65726f20616464726560008201527f7373000000000000000000000000000000000000000000000000000000000000602082015250565b60006112d9602283610d01565b91506112e48261127d565b604082019050919050565b60006020820190508181036000830152611308816112cc565b9050919050565b7f45524332303a20696e73756666696369656e7420616c6c6f77616e6365000000600082015250565b6000611345601d83610d01565b91506113508261130f565b602082019050919050565b6000602082019050818103600083015261137481611338565b9050919050565b7f45524332303a207472616e736665722066726f6d20746865207a65726f20616460008201527f6472657373000000000000000000000000000000000000000000000000000000602082015250565b60006113d7602583610d01565b91506113e28261137b565b604082019050919050565b60006020820190508181036000830152611406816113ca565b9050919050565b7f45524332303a207472616e7366657220746f20746865207a65726f206164647260008201527f6573730000000000000000000000000000000000000000000000000000000000602082015250565b6000611469602383610d01565b91506114748261140d565b604082019050919050565b600060208201905081810360008301526114988161145c565b9050919050565b7f45524332303a207472616e7366657220616d6f756e742065786365656473206260008201527f616c616e63650000000000000000000000000000000000000000000000000000602082015250565b60006114fb602683610d01565b91506115068261149f565b604082019050919050565b6000602082019050818103600083015261152a816114ee565b9050919050565b7f45524332303a206d696e7420746f20746865207a65726f206164647265737300600082015250565b6000611567601f83610d01565b915061157282611531565b602082019050919050565b600060208201905081810360008301526115968161155a565b905091905056fea26469706673582212204a38664a74a95a228bc37e5a1508ceb22391287e88067615377bedc0cbfb3e4664736f6c63430008090033",
  "linkReferences": {},
  "deployedLinkReferences": {}
}